:020000040801F1
:100000004804002065010108DF0E0108750E010893
:10001000DD0E0108AD0101088D120108000000008D
:10002000000000000000000000000000030F0108B5
:10003000AF01010800000000010F0108050F0108D1
:100040007F0101087F0101087F0101087F0101088C
:100050007F0101087F0101087F0101087F0101087C
:100060007F0101087F0101087F0101087F0101086C
:100070007F0101087F0101087F0101087F0101085C
:100080007F0101087F0101087F0101087F0101084C
:100090007F0101087F0101087F0101087F0101083C
:1000A0007F0101087F0101087F0101087F0101082C
:1000B0007F0101087F0101087F0101087F0101081C
:1000C0007F0101087F0101087F0101087F0101080C
:1000D0007F0101087F010108811201087F010108E9
:1000E0007F0101087F0101087F0101080000000075
:1000F0000000000000000000000000000000000000
:1001000000000000000000007F0101087F010108DD
:100110007F0101087F0101087F0101087F010108BB
:100120007F0101087F0101087F0101087F010108AB
:100130007F0101087F0101087F0101087F0101089B
:100140007F0101087F0101087F0101087F0101088B
:10015000DFF80CD000F018F800480047AD12010895
:10016000480400200648804706480047FEE7FEE7AF
:10017000FEE7FEE7FEE7FEE7FEE7FEE7FEE7FEE757
:10018000950F010851010108064C074D06E0E06893
:1001900040F0010394E8070098471034AC42F6D3CE
:1001A000FFF7DAFF8C130108AC130108FEE7704774
:1001B0002DE9F05F90F821100024022903D00421DA
:1001C0008163012485E001680A6822F00E020A605A
:1001D00001680A6822F001020A603F4E3E4FB215E4
:1001E000DFF8F4C0DFF8F090DFF8ECA0DFF8E8B05B
:1001F000DFF8E4E00168783F13011502ACF1640C0C
:10020000A9F15009AAF13C0AABF1280BAEF1140E8A
:100210004FF48018B14227D9B9420ED0614512D0AF
:1002200049451DD0514518D0594518D0714501D1C7
:10023000424615E0294EB14201D1012210E0274E7D
:100240001436B14201D110220AE0244E2836B142C0
:1002500006D0224A3C32914201D11A4600E02A4699
:100260001E49091F0A602BE0B94213D0614517D01F
:10027000494522D051451DD059451DD0714501D168
:1002800042461AE0B14202D14FF0807215E0134E9F
:10029000B14201D1012210E0104E1436B14201D119
:1002A00010220AE00D4E2836B14206D00B4A3C32ED
:1002B000914201D11A4600E02A46074980394A6036
:1002C000012180F82110002180F82010416B01B13C
:1002D00088472046BDE8F09F8000024008040240A5
:1002E00031B500F0EFF8009C0546601C00D0641C9E
:1002F00000F0E8F8401BA042FAD338BD2DE9F84FD2
:10030000DFF890A100220AF1040B144601274FF0F8
:100310000F090BF1040E00BF0B6807FA04F52B4020
:10032000AB4274D1DFF870C14E68A6EB0C0866458D
:100330002BD00DDC032E34D005DC36B3012E19D0C2
:10034000022E2FD11BE0112E16D0122E2AD119E029
:10035000B8F5881F19D006DCB8F5803F15D0B8F580
:10036000801F1FD111E0B8F5001F0ED0B8F5041F93
:1003700018D10AE0CA6815E0CA68121D12E0CA68FE
:1003800008320FE0CA680C320CE08A682AB1012AF0
:100390004FF0080203D0456104E0042202E0056149
:1003A00000E00022FF2B01D8064601E000F1040620
:1003B0004FEA840501D9A5F12005D6F800C009FA55
:1003C00005F82CEA080C02FA05F54CEA050CC6F80B
:1003D00000C04D68ED0057D5304DAE6946F00106BE
:1003E000AE61AD6924F0030605F0010500952C4DC2
:1003F00006EB050CDCF80850A6074FEA167809FA58
:1004000008F6B543274EB04202D1002610E03BE08B
:10041000254EB04201D101260AE0244EB04201D15E
:10042000022605E0224EB04201D1032600E0042658
:1004300006FA08F62E43CCF808604D68DAF800603A
:10044000ED03554601D51E4300E09E432E604D68E6
:10045000DBF80060AD035D4601D51E4300E09E431E
:100460002E604D68DEF80060ED02754601D51E4332
:1004700000E09E432E604D68AD020E4D2E6801D502
:100480001E4300E09E432E60641C102CFFF444AF1A
:10049000BDE8F88F00040140000011100010024078
:1004A0000000014000080140000C01400010014024
:1004B000001401400C0401400AB1016170470904B5
:1004C000FBE70000014800687047000004000020BE
:1004D00002480168491C01607047000004000020C8
:1004E000074810B5016841F010010160032000F0D9
:1004F0008BF8002000F006F800F018F8002010BD7E
:100500000020024010B5044607484FF47A71006895
:10051000B0FBF1F000F09FFB00222146501E00F0DE
:1005200053F8002010BD0000000000201E4808B550
:10053000816941F001018161806900F00100009052
:10054000032000F061F8002211466FF00B0000F06C
:100550003BF8002211466FF00A0000F035F8002247
:1005600011466FF0090000F02FF800221146501FCD
:1005700000F02AF800221146101F00F025F8002292
:100580001146901E00F020F800221146501E00F087
:100590001BF80648416821F0E0614160416841F084
:1005A0000071416008BD00000010024000000140E1
:1005B00000F01F02012191404009800000F1E0207D
:1005C000C0F8001170470000F0B40E4B1B680C46D9
:1005D000C3F30223C3F10705042D00D90425191D17
:1005E000072901D2002300E0DB1E012606FA05F1EF
:1005F000491E214099409E40761E16403143F0BC72
:1006000000F06EBC0CED00E0064900F0070208683F
:100610004FF6FF03184040EA0220034A10430860E7
:10062000704700000CED00E00000FA052DE9F047EE
:10063000DFF83C8105460E46D8F8000000F00700C0
:10064000B0420CD2D8F8001021F007013143C8F8AD
:100650000010D8F8000000F00700B04263D12878FD
:10066000444C800705D56068A96820F0F000084375
:1006700060602878C00745D06868012816D02168D6
:10068000022816D0890700294DDA616821F003019C
:1006900001436160FFF716FF6968074641F2883041
:1006A00001290FD00229814619D027E0216889034A
:1006B000E9E78901E7E700BFFFF704FFC11B4945F0
:1006C00001D918E081466068C0F381000128F3D1A8
:1006D00018E000BFFFF7F6FEC11B49450BD8606864
:1006E000C0F381000228F5D10CE000BFFFF7EAFE5D
:1006F000C11B494502D90320BDE8F087606810F0AE
:100700000C0FF3D1D8F80010404601F00701B142B8
:100710000BD9016821F0070131430160006800F046
:100720000700B04201D00120E6E72878400705D550
:100730006068E96820F4E06008436060287800079A
:1007400006D56068296920F4605040EAC100606005
:1007500000F03CF86168084AC1F30311515CC840DD
:10076000064908600020FFF7CDFE0020C4E7000026
:100770000020024000100240741301080000002015
:100780000148006870470000000000200448054947
:1007900000684968044AC1F30221515CC8407047AF
:1007A000000000200010024084130108044805499D
:1007B00000684968044AC1F3C221515CC8407047CF
:1007C00000000020001002408413010810B51DA293
:1007D00088B00FCA04AC84E80F001EA30FCB8DE8CD
:1007E0000F0020494B68204803F00C02042A02D075
:1007F000082A02D01D4808B010BD04AAC3F38344E0
:10080000DB03125D1BD5CB6ACC6A03F00F031DF826
:100810000330E4030AD5CC6AC96AC4F30314641C28
:10082000B0FBF4F0C1F30321891C4843B0FBF3F0A3
:100830009DF81D1050439142DDD14008DBE70C4884
:100840005043D8E70000040506070809000000002F
:10085000000D00000102030405060708090A0B0C3D
:100860000D0E0F100010024040787D0100127A003A
:1008700000093D002DE9F84F04460078EA4DC00715
:1008800048D06868C0F38100012807D06868C0F3C9
:100890008100022809D16868C00306D52868800352
:1008A00038D5A06800286FD034E0A068B0F5803F4C
:1008B0000BD010B1B0F5A02F11D0286820F48030F3
:1008C0002860286820F4802002E0286840F4803006
:1008D0002860A06888B1FFF7F5FD064609E02868A2
:1008E00040F480202860F0E7FFF7ECFD801B6428CF
:1008F00078D828688003F7D50CE0FFF7E3FD0646BB
:1009000005E000BFFFF7DEFD801B6428F0D82868F3
:100910008003F7D42078C54E80074FF001094FF0CF
:1009200000073CD5686810F00C0F07D06868C0F36A
:100930008100022809D16868C00306D428688007AE
:1009400015D5606901281FD111E06069B8B1C6F8FA
:100950000090FFF7B7FD804606E000BFFFF7B2FD4D
:10096000A0EB08000228C3D828688007F6D52868BD
:10097000A16920F0F80040EAC10028600FE037606C
:10098000FFF7A0FD804607E02DE100BFFFF79AFDCD
:10099000A0EB08000228ABD828688007F6D420789E
:1009A00000072ED5A248E169E9B1C0F80090FFF731
:1009B00089FD804606E000BFFFF784FDA0EB08003C
:1009C000022895D8686A8007F6D59A484FF4FA51FC
:1009D0000068B0FBF1F0009000BF0098411E00914C
:1009E000FAD20EE0B0E00760FFF76CFD804605E04C
:1009F000FFF768FDA0EB0800022887D8686A800727
:100A0000F6D42078400763D5E8694FF00008C000AD
:100A100009D4E86940F08050E861E8694FF00108C6
:100A200000F08050009084480168C90512D4016824
:100A3000834641F480710160FFF744FD824605E082
:100A4000FFF740FDA0EB0A0064287DD8DBF800002A
:100A5000C005F5D5206901280AD008B1052813D0B2
:100A6000286A20F001002862286A20F0040002E0D1
:100A7000286A40F001002862206941F2883B98B161
:100A8000FFF720FD82460BE0286A40F00400286250
:100A9000EEE700BFFFF716FDA0EB0A01594553D85A
:100AA000286A8007F6D50CE0FFF70CFD824605E0CA
:100AB000FFF708FDA0EB0A01594545D8286A8007D1
:100AC000F6D4B8F1000F03D0E86920F08050E86157
:100AD000E06AD0B36968C90307D56968C1F38101C9
:100AE000022902D1E96AC9037DD4022808D0E86A44
:100AF00020F48030E862B766FFF7E4FC80463BE014
:100B00002868C00005D5E86A616B00F0F0008842F3
:100B100069D1B766FFF7D6FC804605E0FFF7D2FC47
:100B2000A0EB0800642874D828680001F6D4E86AAD
:100B3000616B20F0F0000843E862E86A216B20F462
:100B400070600843E86201E063E018E0C6F868906E
:100B5000FFF7B8FC804605E0FFF7B4FCA0EB080007
:100B6000642856D828680001F6D508E0FFF7AAFCEB
:100B7000A0EB080064284CD828680001F6D4206A4D
:100B800090B36968C1F3810102294AD0022837660F
:100B900003D0FFF797FC04463EE0FFF793FC0746BF
:100BA00005E000BFFFF78EFCC01B022831D8286883
:100BB0008001F7D4606AB0F5803F09D1E86A6168C6
:100BC0000843E862E86AE16820F00F000843E86241
:100BD000D4E909010843696821F474110843686085
:100BE000C6F8609001E01CE019E0FFF76BFC0446DA
:100BF00005E000BFFFF766FC001B022809D8286843
:100C00008001F7D50BE000BFFFF75CFC001B02285A
:100C100002D90320BDE8F88F28688001F4D40020B1
:100C2000F8E70120F6E70000001002400000424211
:100C30008004424200000020007000404FF0E0219C
:100C40000428086903D020F004000861704740F0D0
:100C50000400FAE7704710B5401EB0F1807F01D361
:100C6000012010BD4FF0E02460610F21601700F0FB
:100C700037F90020A06107202061002010BD10B5C9
:100C8000FFF7E8FF10BD704770B5026804461068B2
:100C9000D168536910F00F0F51D003F0010501F432
:100CA000907635435DD0C20705D0CA0503D5E26B07
:100CB00042F00102E263420705D5DA0703D0E26B96
:100CC00042F00202E263820705D5DA0703D0E26B45
:100CD00042F00402E263020705D5DA0703D0E26BB3
:100CE00042F00802E263E26B002A34D0800604D5A9
:100CF000880602D5204600F08DF920684069E16B36
:100D0000C0F3801001F008010143204624D000F018
:100D100073F92068416949061AD5416921F04001FB
:100D20004161606BA0B11B494163606BFFF740FA02
:100D3000002810D0606B416BBDE870400847830607
:100D40000FD58B060DD52046BDE8704000F062B986
:100D50002046FFF798FF70BDFFF795FF0020E06386
:100D600070BD030606D50B0604D52046BDE87040CD
:100D700000F054BA4006F3D54806F1D5D1682046B4
:100D800021F04001D160202184F8391000F071F881
:100D900070BD0000E90F010870B5040004D094F89C
:100DA0003900002510B106E0012070BD84F83850EC
:100DB000204600F023F8242084F839002068C16818
:100DC00021F40051C160204600F070F920680169EB
:100DD00021F4904101612068416921F02A014161BB
:100DE0002068C16841F40051C160E563202084F8A7
:100DF000390084F83A00002070BD000010B500688A
:100E0000174986B0884229D11648C16941F400319A
:100E1000C161C069144C00F400300490202000909F
:100E2000022001900320039069462046FFF766FAEE
:100E300000214020CDE90001029169462046FFF7DC
:100E40005DFA0A48416841F00801416000221146FC
:100E50002620FFF7B9FB2620FFF7AAFB06B010BD3E
:100E60000044004000100240001401400000014016
:100E700070477047FEE7000030B5164885B08169BD
:100E800041F040018161816901F040010491816973
:100E900041F004018161816901F0040104918169DB
:100EA00041F02001816180690B4D00F020004FF47A
:100EB00060440490012221462846FFF7FDFA0120F4
:100EC000CDE900400320039069462846FFF716FA53
:100ED00005B030BD0010024000180140FEE7704729
:100EE0000907090E002806DA00F00F0000F1E020E3
:100EF00080F8141D704700F1E02080F8001470475E
:100F00007047704710B5FFF7E3FABDE81040FFF7F0
:100F1000B6BE000030B593B0012528040421CDE908
:100F200002010224CDE908400095019005954FF497
:100F3000E010CDE90A044FF4C0600C9040200D9001
:100F40006846FFF797FC00B1FEE70F20CDE90E04DD
:100F500000204FF48061CDE91001129002210EA80B
:100F6000FFF764FB00B1FEE7FFF70AFC4FF47A716C
:100F7000B0FBF1F0FFF76FFE0420FFF75FFE0448BF
:100F8000056700221146501EFFF71EFB13B030BD4F
:100F9000000042421048016841F0010101604168CF
:100FA0000E4A1140416001680D4A1140016001681C
:100FB00021F480210160416821F4FE014160016853
:100FC00021F0A05101604FF47F0181600021C162D6
:100FD0000449C00308607047001002400000FFF0A1
:100FE000FFFFF6FE08ED00E010B5406A0021C18564
:100FF000C184FFF748FE10BD0168CA6822F49072F0
:10100000CA6001684A6922F001024A61202180F821
:101010003A10704710B590F83A10222901D00220FA
:1010200010BD8168B1F5805F11D0016900290168A8
:101030001FD0496801F07F03816A4A1C82620B70ED
:10104000C18D491E0904090CC18518D02BE0026925
:10105000816A002A0268526805D0D2B20A80816A89
:10106000491C8162ECE7C2F308020A80816A891C8C
:10107000F7E74A68816A4B1C83620A70E0E70168FF
:10108000CA6822F02002CA600168CA6822F480722D
:10109000CA6001684A6922F001024A61202180F891
:1010A0003A10FFF7E5FE002010BD00002DE9F041E9
:1010B000044600680169E26821F44051114301616E
:1010C0002169A0680843616908432168CA6841F240
:1010D0000C639A430243CA6020684169A26921F403
:1010E0004071114341614C49206864253226884291
:1010F0003CD1FFF75BFB00EBC00101EB0010616826
:101100008900B0FBF1F7FFF751FB00EBC00101EBE9
:1011100000106168B0468900B0FBF1F0B0FBF5F05B
:101120006FF01801484307EB800106EB0110B0FB9C
:10113000F5F000F0F006FFF739FB00EBC00101EB22
:10114000001061688900B0FBF1F0B0FBF5F006EB30
:101150000016FFF72BFB00EBC00101EB00106168EC
:101160008900B0FBF1F7FFF721FB3BE0FFF70EFB37
:1011700000EBC00101EB001061688900B0FBF1F7E2
:10118000FFF704FB00EBC00101EB00106168B04603
:101190008900B0FBF1F0B0FBF5F06FF018014843A7
:1011A00007EB800106EB0110B0FBF5F000F0F00654
:1011B000FFF7ECFA00EBC00101EB00106168890059
:1011C000B0FBF1F0B0FBF5F006EB0016FFF7DEFA2E
:1011D00000EBC00101EB001061688900B0FBF1F782
:1011E000FFF7D4FA00EBC00101EB00106168890041
:1011F000B0FBF1F0B0FBF5F06FF01801484307EBDE
:10120000800108EB0110B0FBF5F0216800F00F0041
:1012100030448860BDE8F0810038014090F8391012
:10122000212901D0022070478168B1F5805F016AF1
:101230000BD04A1C0262026809785160C18C491EB9
:101240000904090CC1840ED017E009880268C1F3B3
:101250000801516001690029016A02D0491C01623C
:10126000ECE7891CFBE70168CA6822F08002CA60CB
:101270000068C16841F04001C16000207047000073
:101280000148FFF701BD000008000020FEE702E072
:1012900008C8121F08C1002AFAD170477047002001
:1012A00001E001C1121F002AFBD170472D492C48D3
:1012B0000860FFF715F9FFF72DFEFFF7DDFD2B485E
:1012C00029490C2201604FF4E13141600021816025
:1012D000C160C0E904128161C161FFF75DFD00B129
:1012E000FEE74FF40054224D6600A7004FF4FA7851
:1012F000002221462846FFF7DFF801223146284622
:10130000FFF7DAF8012239462846FFF7D5F84046BC
:10131000FEF7E6FF012221462846FFF7CDF800221E
:1013200031462846FFF7C8F8012239462846FFF71C
:10133000C3F84046FEF7D4FF012221462846FFF7B6
:10134000BBF8012231462846FFF7B6F8002239469D
:101350002846FFF7B1F84046FEF7C2FFC8E7000095
:101360000000010808ED00E00044004008000020F3
:10137000001801400000000000000000010203040A
:10138000060708090000000001020304AC1301086D
:1013900000000020080000008E120108B4130108AC
:1013A00008000020400400009E12010800A24A0428
:0413B0000000000039
:04000005080101519C
:00000001FF
